:100CC300EFC394055009900015E0C3946440047F7A
:0C0CD300018009EF70047F0180027F02A5
:010CDF0022F2
:0400060075A0FF22C0
:100DB200758912758C02758A1775A88275B8022218
:03000B00020D18CB
:100D1800C0E0C083C082C28C120DB2900015E004FE
:0A0D2800F0D28CD082D083D0E032EC
:10092600120DB2D28C900016E0FF120CC390002379
:10093600EFF0900023E014601C14603D14605B141B
:10094600606324047065900015E0C39464405CA362
:100956007402F08056E4900016F0120006120DB2F2
:1009660090001AF0A3F0900015F090001774FFF0B5
:10097600E4A3F0A3F0D28C8032E580F4601820095D
:1009860019208027D209120DD29000167403F0E4C4
:10099600900015F08015C2098011120522900017EB
:1009A600E0F5A080069000167401F0900016E09025
:0609B6000023F0020938E5
:10036A00417373657274206661696C65643A2062D0
:10037A0054656D7056696577496478203E2030204F
:10038A002866696C65202573206C696E6520256472
:10039A00290A00566965772E630041737365727482
:1003AA00206661696C65643A205F6254656D7046C7
:1003BA006F7256696577203E2030202866696C6521
:1003CA00202573206C696E65202564290A00417313
:1003DA0073657274206661696C65643A205F62466F
:1003EA006F63757356696577496E64657820213D38
:1003FA002030784646202866696C65202573206C73
:10040A00696E65202564290A004173736572742038
:10041A006661696C65643A205F624B657950726FF8
:10042A006365737356696577496E646578203E2003
:10043A0030202866696C65202573206C696E6520FA
:10044A002564290A00417373657274206661696CB8
:10045A0065643A20285F62466F63757356696577EB
:10046A00496E646578203D3D203078464629207CD7
:10047A007C20285F62466F63757356696577496E9B
:10048A00646578203C2028414354495645564945DD
:10049A00575F4D4158202D20312929202866696C43
:1004AA0065202573206C696E65202564290A004140
:1004BA007373657274206661696C65643A205F6261
:1004CA00466F63757356696577496E64657820204F
:1004DA00213D2030784646202866696C65202573C0
:1004EA00206C696E65202564290A00000000FF0C53
:1004FA0020FF000AFF0DFFFF0BBAFF0E00FF0E01DF
:10050A00FF0D61FF0E020000000000000000000065
:08051A000000000000000000D9
:100C2000E580F460412009402080077F0212072000
:100C3000801E2081097F01120720D20A8012308491
:100C400009308506308603208706900017E580F07E
:100C5000208215900017E5A0F0E0F4F0E025E0F028
:0A0C6000F4F0D2098002C209D32289
:01000A0022D3
:010DFF0022D1
:100BBA003083032080051207CEC20A300A569000FD
:100BCA001AE475F001120675AFF0FEE4FCFD7B1421
:100BDA007A05F9F8C31206A1503AE490001AF0A374
:100BEA00F0900017E0FFB40F0574F6F08026EFB41A
:100BFA00F60890001774F7F0801A20A708900017DB
:100C0A00740FF0800F75A0FF900017E0F4F0E02554
:060C1A00E0F0F4F0D3222B
:010E000022CF
:010E010022CE
:100D6100120D32EF6003120A51208008D20990005F
:060D7100167404F0D32209
:010E020022CD
:050B5300900025EFF009
:100B5800900018E004900026F0900026E0FFD3945F
:100B680000404CEFD39400501A7525FF7526037585
:100B7800279D75280075298A7BFF7A03796A1200F8
:100B88007080FE900026E0FF2400F582E43400F532
:100B980083E0FE900025E0B5060D74052FF582E48C
:100BA8003400F583E0FF22900026E014F080AA7F4D
:010BB800003C
:010BB9002219
:100D3200900018E0FFF4600D74012FF582E4340096
:080D4200F583E0FF227F05228A
:0F0DD20090001874FFF0900019F0E4FF02072062
:100A5100900018E004900000F0900000E0FFD394B3
:100A610000406DEFD39400501A7525FF752603756C
:100A7100279D7528007529A77BFF7A0379A41200A9
:100A81007080FE900000E02400F582E43400F583DC
:100A9100E0FF75F009A424FBF582E43404F583E456
:100AA10093FB740193FA740293F9EA494B6019EFCD
:100AB10075F009A424FBF582E43404F583740193F1
:100AC100FA740293F91206B7900000E014F08089DD
:070AD10090001874FFF022F1
:10052200900018E0B4FF1A7525FF75260375279D04
:100532007528007529B37BFF7A0379D81200708081
:10054200FE900018E0900019F0E0FF2406F582E426
:100552003400F583E024FE704D74012FF582E434FB
:1005620000F583E0FF75F009A424F8F582E4340471
:10057200F583E493FB740193FA740293F9EA494B0D
:10058200601EEF75F009A424F8F582E43404F583C3
:10059200740193FA740293F91206B75003020649E2
:1005A200900019E014F0900018E0FF900019E0FEAE
:1005B200C39F4007EEF46003020522900019E0FF9A
:1005C200F4700302064974012FF582E43400F583C6
:1005D200E0FF75F009A424F8F582E43404F583E41D
:1005E20093FB740193FA740293F9EA494B602C90DD
:1005F2000019E02406F582E43400F583E0B4021B1E
:10060200EF75F009A424F8F582E43404F58374014B
:1006120093FA740293F91206B7402C900019E0D3B2
:100622009400501A7525FF75260375279D752800BD
:100632007529D07BFF7A04791312007080FE900036
:0806420019E014F00205BD22CD
:10072000900024EFF0C3940540030207CD9000240D
:10073000E0FF120B53EF60030207CD900018E0FFBB
:10074000F46020EFC39404401A7525FF75260375E5
:10075000279D7528007529DF7BFF7A04794F1200E9
:100760007080FE900018E004F0900024E0FF9000FC
:1007700018E0FE2401F582E43400F583EFF07406FE
:100780002EF582E43400F5837402F074012EF582B4
:10079000E43400F583E0FF75F009A424F5F582E464
:1007A0003404F583E493FB740193FA740293F9EA39
:1007B000494B6019EF75F009A424F5F582E434047F
:0E07C000F583740193FA740293F91206B722BE
:1007CE00900018E0B4FF1A7525FF75260375279D56
:1007DE007528007529EE7BFF7A0479B912007080B6
:1007EE00FE900018E02401F582E43400F583E0FF6A
:1007FE0075F009A424FBF582E43404F583E493FB3D
:10080E00740193FA740293F9EA494B6019EF75F08B
:10081E0009A424FBF582E43404F583740193FA747D
:10082E000293F91206B7900019E0FF900018E06FDE
:10083E00603374022FF582E43400F583E0FE740118
:10084E002FF582E43400F583EEF074072FF582E481
:10085E003400F583E0FE74062FF582E43400F58350
:0B086E00EEF00F80C6900018E014F0C0
:01087900225C
:090D7700C2927F01120D80D2929C
:0B0D8000E4FEEED39F5004000E80F74D
:010D8B002245
:050DED00AD07120DF737
:050DF200D291D2922213
:080DF700C291120D79D2912284
:100DA100D291D2927F01120D80C291120D80C29216
:010DB100221F
:100D4A00300B04D2918005200B0CC291120D77C290
:070D5A0092120D80C29122EC
:100D8C00D20CD291120D77A291920CC292120D80BC
:040D9C00C291A20C52
:010DA0002230
:100CE000120DED7B01ED5480FA24FF920B120D4A98
:0C0CF000EDC313FD0BEBB409EC120D8CEE
:010CFC0022D5
:100CFD00120DED7C01ED25E0FD120D8CE433FF545A
:0A0D0D0001FD0CECB409EE120D8C90
:010D170022B9
:100DC200AC05120CE04007AF04120CE0B322C322C0
:0B09BC0090000BEFF0A3EDF0A3EBF0B8
:1009C700D20D120DF7120DF2A3E0FBA3E0FAA3E09C
:1009D700F912064AFF900012E0FBA3E0FAA3E0F940
:1009E700EF12066390000BE054FEF0E4900011F064
:1009F70090000BE0FFA3E0FD120DC240177F6412C9
:100A07000D80900011E0C3940A400122900011E08C
:100A170004F080DC7FC8120D809000117401F09003
:100A2700000DE0FF900011E0D39F501AA3E0FBA355
:100A3700E0FAA3E0F912064AFF120CE0920D9000CB
:090A470011E004F080D9A20DB306
:010A50002283
:0A0AD80090001DEDF0A3EBF0A9075C
:100AE200D20E120DF7120DF2E954FEF9E490002233
:100AF200F0AF0190001DE0FD120DC240177F64129D
:100B02000D80900022E0C3940A400122900022E06E
:100B120004F080DD7FC8120D809000227401F090F5
:100B2200001EE0FF900022E0D39F502190001FE0C2
:100B3200FBA3E475F00112068BA9F0FA12064AFF34
:100B4200120CFD920E900022E004F080D2A20EB3AD
:010B52002280
:100C6A0004B91300010203040506070809FFFFFF80
:100C7A00FFFF202321220A0B11120C1A1025241F10
:100C8A00FF0D27FFFF4C4B1DFFFF1716281800000A
:020C9A00000058
:0300030002087A76
:10087A00C0E0C083C082C0D075D008E4FFFE200F5C
:10088A000302091BC2AF7F007E000EBE96FC0FBF9B
:10089A0003F67F0030B20302091B0FBFFFF630B226
:1008AA00FD30B2FD20B2FD7F0030B2FD7E000000B7
:1008BA0030B2040EBE7FF7A2B27E00000030B20E44
:1008CA00BEFF04C20F804A0EEED394FF40ED7810AB
:1008DA00E6137810F608E6137811F608E61378128C
:1008EA00F608E6137813F60FBF20BE7811E6FF78F4
:1008FA0014E6B50F087915E7781366600A7814A626
:10090A000F7813E67815F6C20F7815E6900C6C93FB
:0C091A00F6D2AFD0D0D082D083D0E03233
:03000000020DE10D
:0C0DE100787FE4F6D8FD75813502092604
:10064A00BB010689828A83E0225002E722BBFE02AE
:09065A00E32289828A83E49322E1
:10066300BB010689828A83F0225002F722BBFE0176
:02067300F32270
:10067500C5F0F8A3E028F0C5F0F8E5821582700210
:060685001583E038F022AD
:10068B00A3F8E0C5F025F0F0E58215827002158322
:06069B00E0C838F0E8227F
:1006A100EB9FF5F0EA9E42F0E99D42F0EC6480C8D0
:0606B10064809845F02270
:0606B7008A838982E473CE
:10000E00E5312425F8E605312278223007027825DD
:10001E00E475F0011206EA02064A2000EB7F2ED2AA
:10002E00008018EF540F2490D43440D4FF30040BCA
:10003E00EF24BFB41A0050032461FFE532600215AD
:10004E00320535E5357002053430070D7822E4753A
:10005E00F0011206EAEF020663020C9C7403D2074B
:10006E008003E4C207F5318B228A238924E4F5321A
:10007E00F534F535E53260077F2012004980F575BD
:10008E0033FFC201C200C202C203C205C206C208C9
:10009E00120017FF700D3007057F0012005AAF35A2
:1000AE00AE3422B4255FC2D5C204120017FF24D08D
:1000BE00B40A00501A75F00A783230D50508B6FF2A
:1000CE000106C6A426F620D5047002D20380D924D8
:1000DE00CFB41A00EF5004C2E5D20402025AD20184
:1000EE0080C6D20080C0D20280BCD2D580BAD205E2
:1000FE0080B47F201200492002077401B5320040FF
:10010E00F112000EFF120049020082D208D20680C0
:10011E009512000EFB12000EFA12000EF94A4B70E9
:10012E0006792B7A037BFF20022EE532602A7E00B1
:10013E008E827583001206BD60060EEE653370F07A
:10014E00C2D5EBC0E0EAC0E0E9C0E0EE1202A1D0F9
:10015E00E0F9D0E0FAD0E0FB12064AFF60AAEBC04D
:10016E00E0EAC0E0E9C0E0120049D0E02401F9D095
:10017E00E03400FAD0E0FBE5330460DCD533D980FF
:10018E00877BFF7A02799DD202809C79108002795A
:10019E0008C206C2088008D2D5790A8004790AC23C
:1001AE00D5E533047002F533E4FAFDFEFF12000EBE
:1001BE00FC7B0820011312000EFD7B1030000A128A
:1001CE00000EFE12000EFF7B20EC3382D592D5502E
:1001DE0013C3E43000069FFFE49EFEE42001039D5E
:1001EE00FDE49CFCE4CBF8C201EC700CCFCECDCC80
:1001FE00E824F8F870F38017C3EF33FFEE33FEED0B
:10020E0033FDEC33FCEB33FB994002FB0FD8E9EBEB
:10021E00300105F8D0E0C448B201C0E00AEC4D4E02
:10022E004F78207B0070C2EAB5330040BCC0E012AC
:10023E0002A3D0F0D0E0200104C4C0E0C4B201C0DB
:10024E00F0120032D0F0D5F0EB0200821206FA0165
:10025E001F5301995800F04C00EC42019D4F01A52F
:0F026E004401A54901054301AB55018F46018F9E
:10027D0045018F47034B5000F42D00F82E011B2B29
:10028D0000FC2301192003342A00B4480000011397
:10029D003F3F3F00790AA2D5200314300509B9105C
:1002AD00020404B9080104A2D5200602500104205D
:1002BD0002689202B532005034C0E07F203003193D
:1002CD007F30A20272067205500F1202FAC202C2EC
:1002DD0006C205C2087F30800F300503E9C0E01269
:1002ED000049300503D0E0F9D0E0B532CC30051728
:1002FD007F30B9100C1200497F583004077F788089
:10030D0003B908031200493002057F2D0200497F11
:10031D00202008F87F2B2006F322920280CF286E32
:10032D00756C6C2900D20112000E3001F8C20178F3
:10033D003230D50108F60200B42D50434958120051
:10034D000E2403B405004001E49003469312003AD5
:0D035D00743A12003AD2037532040201997D
:1006BD00BB010CE58229F582E5833AF583E02250F2
:1006CD0006E92582F8E622BBFE06E92582F8E2223C
:0D06DD00E58229F582E5833AF583E4932256
:1006EA00FAE6FB0808E6F925F0F618E6CA3AF62211
:1006FA00D083D082F8E4937012740193700DA3A38F
:10070A0093F8740193F5828883E4737402936860A2
:06071A00EFA3A3A380DFA2
:100C9C00EFB40A07740D120CA7740A309811A899B6
:100CAC00B8130CC2983098FDA899C298B811F630B8
:070CBC0099FDC299F5992290
:00000001FF
